{"abi":[{"type":"constructor","inputs":[],"stateMutability":"nonpayable"},{"type":"function","name":"approve","inputs":[{"name":"to","type":"address","internalType":"address"},{"name":"tokenId","type":"uint256","internalType":"uint256"}],"outputs":[],"stateMutability":"nonpayable"},{"type":"function","name":"balanceOf","inputs":[{"name":"owner","type":"address","internalType":"address"}],"outputs":[{"name":"","type":"uint256","internalType":"uint256"}],"stateMutability":"view"},{"type":"function","name":"getApproved","inputs":[{"name":"tokenId","type":"uint256","internalType":"uint256"}],"outputs":[{"name":"","type":"address","internalType":"address"}],"stateMutability":"view"},{"type":"function","name":"isApprovedForAll","inputs":[{"name":"owner","type":"address","internalType":"address"},{"name":"operator","type":"address","internalType":"address"}],"outputs":[{"name":"","type":"bool","internalType":"bool"}],"stateMutability":"view"},{"type":"function","name":"mintNFT","inputs":[{"name":"tokenURI","type":"string","internalType":"string"}],"outputs":[],"stateMutability":"nonpayable"},{"type":"function","name":"name","inputs":[],"outputs":[{"name":"","type":"string","internalType":"string"}],"stateMutability":"view"},{"type":"function","name":"ownerOf","inputs":[{"name":"tokenId","type":"uint256","internalType":"uint256"}],"outputs":[{"name":"","type":"address","internalType":"address"}],"stateMutability":"view"},{"type":"function","name":"safeTransferFrom","inputs":[{"name":"from","type":"address","internalType":"address"},{"name":"to","type":"address","internalType":"address"},{"name":"tokenId","type":"uint256","internalType":"uint256"}],"outputs":[],"stateMutability":"nonpayable"},{"type":"function","name":"safeTransferFrom","inputs":[{"name":"from","type":"address","internalType":"address"},{"name":"to","type":"address","internalType":"address"},{"name":"tokenId","type":"uint256","internalType":"uint256"},{"name":"data","type":"bytes","internalType":"bytes"}],"outputs":[],"stateMutability":"nonpayable"},{"type":"function","name":"setApprovalForAll","inputs":[{"name":"operator","type":"address","internalType":"address"},{"name":"approved","type":"bool","internalType":"bool"}],"outputs":[],"stateMutability":"nonpayable"},{"type":"function","name":"supportsInterface","inputs":[{"name":"interfaceId","type":"bytes4","internalType":"bytes4"}],"outputs":[{"name":"","type":"bool","internalType":"bool"}],"stateMutability":"view"},{"type":"function","name":"symbol","inputs":[],"outputs":[{"name":"","type":"string","internalType":"string"}],"stateMutability":"view"},{"type":"function","name":"tokenURI","inputs":[{"name":"tokenId","type":"uint256","internalType":"uint256"}],"outputs":[{"name":"","type":"string","internalType":"string"}],"stateMutability":"view"},{"type":"function","name":"transferFrom","inputs":[{"name":"from","type":"address","internalType":"address"},{"name":"to","type":"address","internalType":"address"},{"name":"tokenId","type":"uint256","internalType":"uint256"}],"outputs":[],"stateMutability":"nonpayable"},{"type":"event","name":"Approval","inputs":[{"name":"owner","type":"address","indexed":true,"internalType":"address"},{"name":"approved","type":"address","indexed":true,"internalType":"address"},{"name":"tokenId","type":"uint256","indexed":true,"internalType":"uint256"}],"anonymous":false},{"type":"event","name":"ApprovalForAll","inputs":[{"name":"owner","type":"address","indexed":true,"internalType":"address"},{"name":"operator","type":"address","indexed":true,"internalType":"address"},{"name":"approved","type":"bool","indexed":false,"internalType":"bool"}],"anonymous":false},{"type":"event","name":"Transfer","inputs":[{"name":"from","type":"address","indexed":true,"internalType":"address"},{"name":"to","type":"address","indexed":true,"internalType":"address"},{"name":"tokenId","type":"uint256","indexed":true,"internalType":"uint256"}],"anonymous":false},{"type":"error","name":"ERC721IncorrectOwner","inputs":[{"name":"sender","type":"address","internalType":"address"},{"name":"tokenId","type":"uint256","internalType":"uint256"},{"name":"owner","type":"address","internalType":"address"}]},{"type":"error","name":"ERC721InsufficientApproval","inputs":[{"name":"operator","type":"address","internalType":"address"},{"name":"tokenId","type":"uint256","internalType":"uint256"}]},{"type":"error","name":"ERC721InvalidApprover","inputs":[{"name":"approver","type":"address","internalType":"address"}]},{"type":"error","name":"ERC721InvalidOperator","inputs":[{"name":"operator","type":"address","internalType":"address"}]},{"type":"error","name":"ERC721InvalidOwner","inputs":[{"name":"owner","type":"address","internalType":"address"}]},{"type":"error","name":"ERC721InvalidReceiver","inputs":[{"name":"receiver","type":"address","internalType":"address"}]},{"type":"error","name":"ERC721InvalidSender","inputs":[{"name":"sender","type":"address","internalType":"address"}]},{"type":"error","name":"ERC721NonexistentToken","inputs":[{"name":"tokenId","type":"uint256","internalType":"uint256"}]}],"bytecode":{"object":"0x608060405234801561001057600080fd5b506040518060400160405280600981526020017f46726f6d656f4e465400000000000000000000000000000000000000000000008152506040518060400160405280600681526020017f46524f4d454f0000000000000000000000000000000000000000000000000000815250816000908161008c91906102fc565b50806001908161009c91906102fc565b50505060006006819055506103ce565b600081519050919050565b7f4e487b7100000000000000000000000000000000000000000000000000000000600052604160045260246000fd5b7f4e487b7100000000000000000000000000000000000000000000000000000000600052602260045260246000fd5b6000600282049050600182168061012d57607f821691505b6020821081036101405761013f6100e6565b5b50919050565b60008190508160005260206000209050919050565b60006020601f8301049050919050565b600082821b905092915050565b6000600883026101a87fffffffffffffffffffffffffffffffffffffffffffffffffffffffffffffffff8261016b565b6101b2868361016b565b95508019841693508086168417925050509392505050565b6000819050919050565b6000819050919050565b60006101f96101f46101ef846101ca565b6101d4565b6101ca565b9050919050565b6000819050919050565b610213836101de565b61022761021f82610200565b848454610178565b825550505050565b600090565b61023c61022f565b61024781848461020a565b505050565b5b8181101561026b57610260600082610234565b60018101905061024d565b5050565b601f8211156102b05761028181610146565b61028a8461015b565b81016020851015610299578190505b6102ad6102a58561015b565b83018261024c565b50505b505050565b600082821c905092915050565b60006102d3600019846008026102b5565b1980831691505092915050565b60006102ec83836102c2565b9150826002028217905092915050565b610305826100ac565b67ffffffffffffffff81111561031e5761031d6100b7565b5b6103288254610115565b61033382828561026f565b600060209050601f8311600181146103665760008415610354578287015190505b61035e85826102e0565b8655506103c6565b601f19841661037486610146565b60005b8281101561039c57848901518255600182019150602085019450602081019050610377565b868310156103b957848901516103b5601f8916826102c2565b8355505b6001600288020188555050505b505050505050565b611f84806103dd6000396000f3fe608060405234801561001057600080fd5b50600436106100ea5760003560e01c806370a082311161008c578063b88d4fde11610066578063b88d4fde1461025b578063c87b56dd14610277578063e985e9c5146102a7578063fb37e883146102d7576100ea565b806370a08231146101f157806395d89b4114610221578063a22cb4651461023f576100ea565b8063095ea7b3116100c8578063095ea7b31461016d57806323b872dd1461018957806342842e0e146101a55780636352211e146101c1576100ea565b806301ffc9a7146100ef57806306fdde031461011f578063081812fc1461013d575b600080fd5b6101096004803603810190610104919061147e565b6102f3565b60405161011691906114c6565b60405180910390f35b6101276103d5565b6040516101349190611571565b60405180910390f35b610157600480360381019061015291906115c9565b610467565b6040516101649190611637565b60405180910390f35b6101876004803603810190610182919061167e565b610483565b005b6101a3600480360381019061019e91906116be565b610499565b005b6101bf60048036038101906101ba91906116be565b61059b565b005b6101db60048036038101906101d691906115c9565b6105bb565b6040516101e89190611637565b60405180910390f35b61020b60048036038101906102069190611711565b6105cd565b604051610218919061174d565b60405180910390f35b610229610687565b6040516102369190611571565b60405180910390f35b61025960048036038101906102549190611794565b610719565b005b61027560048036038101906102709190611909565b61072f565b005b610291600480360381019061028c91906115c9565b61074c565b60405161029e9190611571565b60405180910390f35b6102c160048036038101906102bc919061198c565b6107f1565b6040516102ce91906114c6565b60405180910390f35b6102f160048036038101906102ec9190611a6d565b610885565b005b60007f80ac58cd000000000000000000000000000000000000000000000000000000007bffffffffffffffffffffffffffffffffffffffffffffffffffffffff1916827bffffffffffffffffffffffffffffffffffffffffffffffffffffffff191614806103be57507f5b5e139f000000000000000000000000000000000000000000000000000000007bffffffffffffffffffffffffffffffffffffffffffffffffffffffff1916827bffffffffffffffffffffffffffffffffffffffffffffffffffffffff1916145b806103ce57506103cd826108cf565b5b9050919050565b6060600080546103e490611ae5565b80601f016020809104026020016040519081016040528092919081815260200182805461041090611ae5565b801561045d5780601f106104325761010080835404028352916020019161045d565b820191906000526020600020905b81548152906001019060200180831161044057829003601f168201915b5050505050905090565b600061047282610939565b5061047c826109c1565b9050919050565b61049582826104906109fe565b610a06565b5050565b600073ffffffffffffffffffffffffffffffffffffffff168273ffffffffffffffffffffffffffffffffffffffff160361050b5760006040517f64a0ae920000000000000000000000000000000000000000000000000000000081526004016105029190611637565b60405180910390fd5b600061051f838361051a6109fe565b610a18565b90508373ffffffffffffffffffffffffffffffffffffffff168173ffffffffffffffffffffffffffffffffffffffff1614610595578382826040517f64283d7b00000000000000000000000000000000000000000000000000000000815260040161058c93929190611b16565b60405180910390fd5b50505050565b6105b68383836040518060200160405280600081525061072f565b505050565b60006105c682610939565b9050919050565b60008073ffffffffffffffffffffffffffffffffffffffff168273ffffffffffffffffffffffffffffffffffffffff16036106405760006040517f89c62b640000000000000000000000000000000000000000000000000000000081526004016106379190611637565b60405180910390fd5b600360008373ffffffffffffffffffffffffffffffffffffffff1673ffffffffffffffffffffffffffffffffffffffff168152602001908152602001600020549050919050565b60606001805461069690611ae5565b80601f01602080910402602001604051908101604052809291908181526020018280546106c290611ae5565b801561070f5780601f106106e45761010080835404028352916020019161070f565b820191906000526020600020905b8154815290600101906020018083116106f257829003601f168201915b5050505050905090565b61072b6107246109fe565b8383610c32565b5050565b61073a848484610499565b61074684848484610da1565b50505050565b606060076000838152602001908152602001600020805461076c90611ae5565b80601f016020809104026020016040519081016040528092919081815260200182805461079890611ae5565b80156107e55780601f106107ba576101008083540402835291602001916107e5565b820191906000526020600020905b8154815290600101906020018083116107c857829003601f168201915b50505050509050919050565b6000600560008473ffffffffffffffffffffffffffffffffffffffff1673ffffffffffffffffffffffffffffffffffffffff16815260200190815260200160002060008373ffffffffffffffffffffffffffffffffffffffff1673ffffffffffffffffffffffffffffffffffffffff16815260200190815260200160002060009054906101000a900460ff16905092915050565b8060076000600654815260200190815260200160002090816108a79190611cf9565b506108b433600654610f58565b600660008154809291906108c790611dfa565b919050555050565b60007f01ffc9a7000000000000000000000000000000000000000000000000000000007bffffffffffffffffffffffffffffffffffffffffffffffffffffffff1916827bffffffffffffffffffffffffffffffffffffffffffffffffffffffff1916149050919050565b60008061094583610f76565b9050600073ffffffffffffffffffffffffffffffffffffffff168173ffffffffffffffffffffffffffffffffffffffff16036109b857826040517f7e2732890000000000000000000000000000000000000000000000000000000081526004016109af919061174d565b60405180910390fd5b80915050919050565b60006004600083815260200190815260200160002060009054906101000a900473ffffffffffffffffffffffffffffffffffffffff169050919050565b600033905090565b610a138383836001610fb3565b505050565b600080610a2484610f76565b9050600073ffffffffffffffffffffffffffffffffffffffff168373ffffffffffffffffffffffffffffffffffffffff1614610a6657610a65818486611178565b5b600073ffffffffffffffffffffffffffffffffffffffff168173ffffffffffffffffffffffffffffffffffffffff1614610af757610aa8600085600080610fb3565b6001600360008373ffffffffffffffffffffffffffffffffffffffff1673ffffffffffffffffffffffffffffffffffffffff168152602001908152602001600020600082825403925050819055505b600073ffffffffffffffffffffffffffffffffffffffff168573ffffffffffffffffffffffffffffffffffffffff1614610b7a576001600360008773ffffffffffffffffffffffffffffffffffffffff1673ffffffffffffffffffffffffffffffffffffffff168152602001908152602001600020600082825401925050819055505b846002600086815260200190815260200160002060006101000a81548173ffffffffffffffffffffffffffffffffffffffff021916908373ffffffffffffffffffffffffffffffffffffffff160217905550838573ffffffffffffffffffffffffffffffffffffffff168273ffffffffffffffffffffffffffffffffffffffff167fddf252ad1be2c89b69c2b068fc378daa952ba7f163c4a11628f55a4df523b3ef60405160405180910390a4809150509392505050565b600073ffffffffffffffffffffffffffffffffffffffff168273ffffffffffffffffffffffffffffffffffffffff1603610ca357816040517f5b08ba18000000000000000000000000000000000000000000000000000000008152600401610c9a9190611637565b60405180910390fd5b80600560008573ffffffffffffffffffffffffffffffffffffffff1673ffffffffffffffffffffffffffffffffffffffff16815260200190815260200160002060008473ffffffffffffffffffffffffffffffffffffffff1673ffffffffffffffffffffffffffffffffffffffff16815260200190815260200160002060006101000a81548160ff0219169083151502179055508173ffffffffffffffffffffffffffffffffffffffff168373ffffffffffffffffffffffffffffffffffffffff167f17307eab39ab6107e8899845ad3d59bd9653f200f220920489ca2b5937696c3183604051610d9491906114c6565b60405180910390a3505050565b60008373ffffffffffffffffffffffffffffffffffffffff163b1115610f52578273ffffffffffffffffffffffffffffffffffffffff1663150b7a02610de56109fe565b8685856040518563ffffffff1660e01b8152600401610e079493929190611e97565b6020604051808303816000875af1925050508015610e4357506040513d601f19601f82011682018060405250810190610e409190611ef8565b60015b610ec7573d8060008114610e73576040519150601f19603f3d011682016040523d82523d6000602084013e610e78565b606091505b506000815103610ebf57836040517f64a0ae92000000000000000000000000000000000000000000000000000000008152600401610eb69190611637565b60405180910390fd5b805181602001fd5b63150b7a0260e01b7bffffffffffffffffffffffffffffffffffffffffffffffffffffffff1916817bffffffffffffffffffffffffffffffffffffffffffffffffffffffff191614610f5057836040517f64a0ae92000000000000000000000000000000000000000000000000000000008152600401610f479190611637565b60405180910390fd5b505b50505050565b610f7282826040518060200160405280600081525061123c565b5050565b60006002600083815260200190815260200160002060009054906101000a900473ffffffffffffffffffffffffffffffffffffffff169050919050565b8080610fec5750600073ffffffffffffffffffffffffffffffffffffffff168273ffffffffffffffffffffffffffffffffffffffff1614155b15611120576000610ffc84610939565b9050600073ffffffffffffffffffffffffffffffffffffffff168373ffffffffffffffffffffffffffffffffffffffff161415801561106757508273ffffffffffffffffffffffffffffffffffffffff168173ffffffffffffffffffffffffffffffffffffffff1614155b801561107a575061107881846107f1565b155b156110bc57826040517fa9fbf51f0000000000000000000000000000000000000000000000000000000081526004016110b39190611637565b60405180910390fd5b811561111e57838573ffffffffffffffffffffffffffffffffffffffff168273ffffffffffffffffffffffffffffffffffffffff167f8c5be1e5ebec7d5bd14f71427d1e84f3dd0314c0f7b2291e5b200ac8c7c3b92560405160405180910390a45b505b836004600085815260200190815260200160002060006101000a81548173ffffffffffffffffffffffffffffffffffffffff021916908373ffffffffffffffffffffffffffffffffffffffff16021790555050505050565b611183838383611258565b61123757600073ffffffffffffffffffffffffffffffffffffffff168373ffffffffffffffffffffffffffffffffffffffff16036111f857806040517f7e2732890000000000000000000000000000000000000000000000000000000081526004016111ef919061174d565b60405180910390fd5b81816040517f177e802f00000000000000000000000000000000000000000000000000000000815260040161122e929190611f25565b60405180910390fd5b505050565b6112468383611319565b6112536000848484610da1565b505050565b60008073ffffffffffffffffffffffffffffffffffffffff168373ffffffffffffffffffffffffffffffffffffffff161415801561131057508273ffffffffffffffffffffffffffffffffffffffff168473ffffffffffffffffffffffffffffffffffffffff1614806112d157506112d084846107f1565b5b8061130f57508273ffffffffffffffffffffffffffffffffffffffff166112f7836109c1565b73ffffffffffffffffffffffffffffffffffffffff16145b5b90509392505050565b600073ffffffffffffffffffffffffffffffffffffffff168273ffffffffffffffffffffffffffffffffffffffff160361138b5760006040517f64a0ae920000000000000000000000000000000000000000000000000000000081526004016113829190611637565b60405180910390fd5b600061139983836000610a18565b9050600073ffffffffffffffffffffffffffffffffffffffff168173ffffffffffffffffffffffffffffffffffffffff161461140d5760006040517f73c6ac6e0000000000000000000000000000000000000000000000000000000081526004016114049190611637565b60405180910390fd5b505050565b6000604051905090565b600080fd5b600080fd5b60007fffffffff0000000000000000000000000000000000000000000000000000000082169050919050565b61145b81611426565b811461146657600080fd5b50565b60008135905061147881611452565b92915050565b6000602082840312156114945761149361141c565b5b60006114a284828501611469565b91505092915050565b60008115159050919050565b6114c0816114ab565b82525050565b60006020820190506114db60008301846114b7565b92915050565b600081519050919050565b600082825260208201905092915050565b60005b8381101561151b578082015181840152602081019050611500565b60008484015250505050565b6000601f19601f8301169050919050565b6000611543826114e1565b61154d81856114ec565b935061155d8185602086016114fd565b61156681611527565b840191505092915050565b6000602082019050818103600083015261158b8184611538565b905092915050565b6000819050919050565b6115a681611593565b81146115b157600080fd5b50565b6000813590506115c38161159d565b92915050565b6000602082840312156115df576115de61141c565b5b60006115ed848285016115b4565b91505092915050565b600073ffffffffffffffffffffffffffffffffffffffff82169050919050565b6000611621826115f6565b9050919050565b61163181611616565b82525050565b600060208201905061164c6000830184611628565b92915050565b61165b81611616565b811461166657600080fd5b50565b60008135905061167881611652565b92915050565b600080604083850312156116955761169461141c565b5b60006116a385828601611669565b92505060206116b4858286016115b4565b9150509250929050565b6000806000606084860312156116d7576116d661141c565b5b60006116e586828701611669565b93505060206116f686828701611669565b9250506040611707868287016115b4565b9150509250925092565b6000602082840312156117275761172661141c565b5b600061173584828501611669565b91505092915050565b61174781611593565b82525050565b6000602082019050611762600083018461173e565b92915050565b611771816114ab565b811461177c57600080fd5b50565b60008135905061178e81611768565b92915050565b600080604083850312156117ab576117aa61141c565b5b60006117b985828601611669565b92505060206117ca8582860161177f565b9150509250929050565b600080fd5b600080fd5b7f4e487b7100000000000000000000000000000000000000000000000000000000600052604160045260246000fd5b61181682611527565b810181811067ffffffffffffffff82111715611835576118346117de565b5b80604052505050565b6000611848611412565b9050611854828261180d565b919050565b600067ffffffffffffffff821115611874576118736117de565b5b61187d82611527565b9050602081019050919050565b82818337600083830152505050565b60006118ac6118a784611859565b61183e565b9050828152602081018484840111156118c8576118c76117d9565b5b6118d384828561188a565b509392505050565b600082601f8301126118f0576118ef6117d4565b5b8135611900848260208601611899565b91505092915050565b600080600080608085870312156119235761192261141c565b5b600061193187828801611669565b945050602061194287828801611669565b9350506040611953878288016115b4565b925050606085013567ffffffffffffffff81111561197457611973611421565b5b611980878288016118db565b91505092959194509250565b600080604083850312156119a3576119a261141c565b5b60006119b185828601611669565b92505060206119c285828601611669565b9150509250929050565b600067ffffffffffffffff8211156119e7576119e66117de565b5b6119f082611527565b9050602081019050919050565b6000611a10611a0b846119cc565b61183e565b905082815260208101848484011115611a2c57611a2b6117d9565b5b611a3784828561188a565b509392505050565b600082601f830112611a5457611a536117d4565b5b8135611a648482602086016119fd565b91505092915050565b600060208284031215611a8357611a8261141c565b5b600082013567ffffffffffffffff811115611aa157611aa0611421565b5b611aad84828501611a3f565b91505092915050565b7f4e487b7100000000000000000000000000000000000000000000000000000000600052602260045260246000fd5b60006002820490506001821680611afd57607f821691505b602082108103611b1057611b0f611ab6565b5b50919050565b6000606082019050611b2b6000830186611628565b611b38602083018561173e565b611b456040830184611628565b949350505050565b60008190508160005260206000209050919050565b60006020601f8301049050919050565b600082821b905092915050565b600060088302611baf7fffffffffffffffffffffffffffffffffffffffffffffffffffffffffffffffff82611b72565b611bb98683611b72565b95508019841693508086168417925050509392505050565b6000819050919050565b6000611bf6611bf1611bec84611593565b611bd1565b611593565b9050919050565b6000819050919050565b611c1083611bdb565b611c24611c1c82611bfd565b848454611b7f565b825550505050565b600090565b611c39611c2c565b611c44818484611c07565b505050565b5b81811015611c6857611c5d600082611c31565b600181019050611c4a565b5050565b601f821115611cad57611c7e81611b4d565b611c8784611b62565b81016020851015611c96578190505b611caa611ca285611b62565b830182611c49565b50505b505050565b600082821c905092915050565b6000611cd060001984600802611cb2565b1980831691505092915050565b6000611ce98383611cbf565b9150826002028217905092915050565b611d02826114e1565b67ffffffffffffffff811115611d1b57611d1a6117de565b5b611d258254611ae5565b611d30828285611c6c565b600060209050601f831160018114611d635760008415611d51578287015190505b611d5b8582611cdd565b865550611dc3565b601f198416611d7186611b4d565b60005b82811015611d9957848901518255600182019150602085019450602081019050611d74565b86831015611db65784890151611db2601f891682611cbf565b8355505b6001600288020188555050505b505050505050565b7f4e487b7100000000000000000000000000000000000000000000000000000000600052601160045260246000fd5b6000611e0582611593565b91507fffffffffffffffffffffffffffffffffffffffffffffffffffffffffffffffff8203611e3757611e36611dcb565b5b600182019050919050565b600081519050919050565b600082825260208201905092915050565b6000611e6982611e42565b611e738185611e4d565b9350611e838185602086016114fd565b611e8c81611527565b840191505092915050565b6000608082019050611eac6000830187611628565b611eb96020830186611628565b611ec6604083018561173e565b8181036060830152611ed88184611e5e565b905095945050505050565b600081519050611ef281611452565b92915050565b600060208284031215611f0e57611f0d61141c565b5b6000611f1c84828501611ee3565b91505092915050565b6000604082019050611f3a6000830185611628565b611f47602083018461173e565b939250505056fea2646970667358221220d38addef41b794f1c1b5cd133e4e5f729f6227dc129b48d07e7b9015a8ee424b64736f6c634300081c0033","linkReferences":{}},"methodIdentifiers":{"approve(address,uint256)":"095ea7b3","balanceOf(address)":"70a08231","getApproved(uint256)":"081812fc","isApprovedForAll(address,address)":"e985e9c5","mintNFT(string)":"fb37e883","name()":"06fdde03","ownerOf(uint256)":"6352211e","safeTransferFrom(address,address,uint256)":"42842e0e","safeTransferFrom(address,address,uint256,bytes)":"b88d4fde","setApprovalForAll(address,bool)":"a22cb465","supportsInterface(bytes4)":"01ffc9a7","symbol()":"95d89b41","tokenURI(uint256)":"c87b56dd","transferFrom(address,address,uint256)":"23b872dd"},"id":41}