{"abi":[{"type":"constructor","inputs":[{"name":"sadSVG","type":"string","internalType":"string"},{"name":"happySVG","type":"string","internalType":"string"}],"stateMutability":"nonpayable"},{"type":"function","name":"approve","inputs":[{"name":"to","type":"address","internalType":"address"},{"name":"tokenId","type":"uint256","internalType":"uint256"}],"outputs":[],"stateMutability":"nonpayable"},{"type":"function","name":"balanceOf","inputs":[{"name":"owner","type":"address","internalType":"address"}],"outputs":[{"name":"","type":"uint256","internalType":"uint256"}],"stateMutability":"view"},{"type":"function","name":"flipMood","inputs":[{"name":"tokenId","type":"uint256","internalType":"uint256"}],"outputs":[],"stateMutability":"nonpayable"},{"type":"function","name":"getApproved","inputs":[{"name":"tokenId","type":"uint256","internalType":"uint256"}],"outputs":[{"name":"","type":"address","internalType":"address"}],"stateMutability":"view"},{"type":"function","name":"getMood","inputs":[{"name":"tokenId","type":"uint256","internalType":"uint256"}],"outputs":[{"name":"","type":"uint8","internalType":"enum MoodNFT.Mood"}],"stateMutability":"view"},{"type":"function","name":"isApprovedForAll","inputs":[{"name":"owner","type":"address","internalType":"address"},{"name":"operator","type":"address","internalType":"address"}],"outputs":[{"name":"","type":"bool","internalType":"bool"}],"stateMutability":"view"},{"type":"function","name":"mintNFT","inputs":[],"outputs":[],"stateMutability":"nonpayable"},{"type":"function","name":"name","inputs":[],"outputs":[{"name":"","type":"string","internalType":"string"}],"stateMutability":"view"},{"type":"function","name":"ownerOf","inputs":[{"name":"tokenId","type":"uint256","internalType":"uint256"}],"outputs":[{"name":"","type":"address","internalType":"address"}],"stateMutability":"view"},{"type":"function","name":"safeTransferFrom","inputs":[{"name":"from","type":"address","internalType":"address"},{"name":"to","type":"address","internalType":"address"},{"name":"tokenId","type":"uint256","internalType":"uint256"}],"outputs":[],"stateMutability":"nonpayable"},{"type":"function","name":"safeTransferFrom","inputs":[{"name":"from","type":"address","internalType":"address"},{"name":"to","type":"address","internalType":"address"},{"name":"tokenId","type":"uint256","internalType":"uint256"},{"name":"data","type":"bytes","internalType":"bytes"}],"outputs":[],"stateMutability":"nonpayable"},{"type":"function","name":"setApprovalForAll","inputs":[{"name":"operator","type":"address","internalType":"address"},{"name":"approved","type":"bool","internalType":"bool"}],"outputs":[],"stateMutability":"nonpayable"},{"type":"function","name":"supportsInterface","inputs":[{"name":"interfaceId","type":"bytes4","internalType":"bytes4"}],"outputs":[{"name":"","type":"bool","internalType":"bool"}],"stateMutability":"view"},{"type":"function","name":"symbol","inputs":[],"outputs":[{"name":"","type":"string","internalType":"string"}],"stateMutability":"view"},{"type":"function","name":"tokenURI","inputs":[{"name":"tokenId","type":"uint256","internalType":"uint256"}],"outputs":[{"name":"","type":"string","internalType":"string"}],"stateMutability":"view"},{"type":"function","name":"transferFrom","inputs":[{"name":"from","type":"address","internalType":"address"},{"name":"to","type":"address","internalType":"address"},{"name":"tokenId","type":"uint256","internalType":"uint256"}],"outputs":[],"stateMutability":"nonpayable"},{"type":"event","name":"Approval","inputs":[{"name":"owner","type":"address","indexed":true,"internalType":"address"},{"name":"approved","type":"address","indexed":true,"internalType":"address"},{"name":"tokenId","type":"uint256","indexed":true,"internalType":"uint256"}],"anonymous":false},{"type":"event","name":"ApprovalForAll","inputs":[{"name":"owner","type":"address","indexed":true,"internalType":"address"},{"name":"operator","type":"address","indexed":true,"internalType":"address"},{"name":"approved","type":"bool","indexed":false,"internalType":"bool"}],"anonymous":false},{"type":"event","name":"Transfer","inputs":[{"name":"from","type":"address","indexed":true,"internalType":"address"},{"name":"to","type":"address","indexed":true,"internalType":"address"},{"name":"tokenId","type":"uint256","indexed":true,"internalType":"uint256"}],"anonymous":false},{"type":"error","name":"ERC721IncorrectOwner","inputs":[{"name":"sender","type":"address","internalType":"address"},{"name":"tokenId","type":"uint256","internalType":"uint256"},{"name":"owner","type":"address","internalType":"address"}]},{"type":"error","name":"ERC721InsufficientApproval","inputs":[{"name":"operator","type":"address","internalType":"address"},{"name":"tokenId","type":"uint256","internalType":"uint256"}]},{"type":"error","name":"ERC721InvalidApprover","inputs":[{"name":"approver","type":"address","internalType":"address"}]},{"type":"error","name":"ERC721InvalidOperator","inputs":[{"name":"operator","type":"address","internalType":"address"}]},{"type":"error","name":"ERC721InvalidOwner","inputs":[{"name":"owner","type":"address","internalType":"address"}]},{"type":"error","name":"ERC721InvalidReceiver","inputs":[{"name":"receiver","type":"address","internalType":"address"}]},{"type":"error","name":"ERC721InvalidSender","inputs":[{"name":"sender","type":"address","internalType":"address"}]},{"type":"error","name":"ERC721NonexistentToken","inputs":[{"name":"tokenId","type":"uint256","internalType":"uint256"}]}],"bytecode":{"object":"0x608060405234801561001057600080fd5b50604051612a3d380380612a3d83398181016040528101906100329190610264565b6040518060400160405280600781526020017f4d6f6f644e4654000000000000000000000000000000000000000000000000008152506040518060400160405280600281526020017f4d4400000000000000000000000000000000000000000000000000000000000081525081600090816100ad91906104fd565b5080600190816100bd91906104fd565b505050600060068190555081600790816100d791906104fd565b5080600890816100e791906104fd565b5050506105cf565b6000604051905090565b600080fd5b600080fd5b600080fd5b600080fd5b6000601f19601f8301169050919050565b7f4e487b7100000000000000000000000000000000000000000000000000000000600052604160045260246000fd5b6101568261010d565b810181811067ffffffffffffffff821117156101755761017461011e565b5b80604052505050565b60006101886100ef565b9050610194828261014d565b919050565b600067ffffffffffffffff8211156101b4576101b361011e565b5b6101bd8261010d565b9050602081019050919050565b60005b838110156101e85780820151818401526020810190506101cd565b60008484015250505050565b600061020761020284610199565b61017e565b90508281526020810184848401111561022357610222610108565b5b61022e8482856101ca565b509392505050565b600082601f83011261024b5761024a610103565b5b815161025b8482602086016101f4565b91505092915050565b6000806040838503121561027b5761027a6100f9565b5b600083015167ffffffffffffffff811115610299576102986100fe565b5b6102a585828601610236565b925050602083015167ffffffffffffffff8111156102c6576102c56100fe565b5b6102d285828601610236565b9150509250929050565b600081519050919050565b7f4e487b7100000000000000000000000000000000000000000000000000000000600052602260045260246000fd5b6000600282049050600182168061032e57607f821691505b602082108103610341576103406102e7565b5b50919050565b60008190508160005260206000209050919050565b60006020601f8301049050919050565b600082821b905092915050565b6000600883026103a97fffffffffffffffffffffffffffffffffffffffffffffffffffffffffffffffff8261036c565b6103b3868361036c565b95508019841693508086168417925050509392505050565b6000819050919050565b6000819050919050565b60006103fa6103f56103f0846103cb565b6103d5565b6103cb565b9050919050565b6000819050919050565b610414836103df565b61042861042082610401565b848454610379565b825550505050565b600090565b61043d610430565b61044881848461040b565b505050565b5b8181101561046c57610461600082610435565b60018101905061044e565b5050565b601f8211156104b15761048281610347565b61048b8461035c565b8101602085101561049a578190505b6104ae6104a68561035c565b83018261044d565b50505b505050565b600082821c905092915050565b60006104d4600019846008026104b6565b1980831691505092915050565b60006104ed83836104c3565b9150826002028217905092915050565b610506826102dc565b67ffffffffffffffff81111561051f5761051e61011e565b5b6105298254610316565b610534828285610470565b600060209050601f8311600181146105675760008415610555578287015190505b61055f85826104e1565b8655506105c7565b601f19841661057586610347565b60005b8281101561059d57848901518255600182019150602085019450602081019050610578565b868310156105ba57848901516105b6601f8916826104c3565b8355505b6001600288020188555050505b505050505050565b61245f806105de6000396000f3fe608060405234801561001057600080fd5b50600436106101005760003560e01c806370a0823111610097578063c1a147a011610066578063c1a147a014610297578063c87b56dd146102b3578063e985e9c5146102e3578063f4cf24661461031357610100565b806370a082311461021157806395d89b4114610241578063a22cb4651461025f578063b88d4fde1461027b57610100565b806314f710fe116100d357806314f710fe1461019f57806323b872dd146101a957806342842e0e146101c55780636352211e146101e157610100565b806301ffc9a71461010557806306fdde0314610135578063081812fc14610153578063095ea7b314610183575b600080fd5b61011f600480360381019061011a919061191e565b610343565b60405161012c9190611966565b60405180910390f35b61013d610425565b60405161014a9190611a11565b60405180910390f35b61016d60048036038101906101689190611a69565b6104b7565b60405161017a9190611ad7565b60405180910390f35b61019d60048036038101906101989190611b1e565b6104d3565b005b6101a76104e9565b005b6101c360048036038101906101be9190611b5e565b61054d565b005b6101df60048036038101906101da9190611b5e565b61064f565b005b6101fb60048036038101906101f69190611a69565b61066f565b6040516102089190611ad7565b60405180910390f35b61022b60048036038101906102269190611bb1565b610681565b6040516102389190611bed565b60405180910390f35b61024961073b565b6040516102569190611a11565b60405180910390f35b61027960048036038101906102749190611c34565b6107cd565b005b61029560048036038101906102909190611da9565b6107e3565b005b6102b160048036038101906102ac9190611a69565b610800565b005b6102cd60048036038101906102c89190611a69565b6108e6565b6040516102da9190611a11565b60405180910390f35b6102fd60048036038101906102f89190611e2c565b610b02565b60405161030a9190611966565b60405180910390f35b61032d60048036038101906103289190611a69565b610b96565b60405161033a9190611ee3565b60405180910390f35b60007f80ac58cd000000000000000000000000000000000000000000000000000000007bffffffffffffffffffffffffffffffffffffffffffffffffffffffff1916827bffffffffffffffffffffffffffffffffffffffffffffffffffffffff1916148061040e57507f5b5e139f000000000000000000000000000000000000000000000000000000007bffffffffffffffffffffffffffffffffffffffffffffffffffffffff1916827bffffffffffffffffffffffffffffffffffffffffffffffffffffffff1916145b8061041e575061041d82610bc0565b5b9050919050565b60606000805461043490611f2d565b80601f016020809104026020016040519081016040528092919081815260200182805461046090611f2d565b80156104ad5780601f10610482576101008083540402835291602001916104ad565b820191906000526020600020905b81548152906001019060200180831161049057829003601f168201915b5050505050905090565b60006104c282610c2a565b506104cc82610cb2565b9050919050565b6104e582826104e0610cef565b610cf7565b5050565b6104f533600654610d09565b600060096000600654815260200190815260200160002060006101000a81548160ff0219169083600181111561052e5761052d611e6c565b5b02179055506006600081548092919061054690611f8d565b9190505550565b600073ffffffffffffffffffffffffffffffffffffffff168273ffffffffffffffffffffffffffffffffffffffff16036105bf5760006040517f64a0ae920000000000000000000000000000000000000000000000000000000081526004016105b69190611ad7565b60405180910390fd5b60006105d383836105ce610cef565b610d27565b90508373ffffffffffffffffffffffffffffffffffffffff168173ffffffffffffffffffffffffffffffffffffffff1614610649578382826040517f64283d7b00000000000000000000000000000000000000000000000000000000815260040161064093929190611fd5565b60405180910390fd5b50505050565b61066a838383604051806020016040528060008152506107e3565b505050565b600061067a82610c2a565b9050919050565b60008073ffffffffffffffffffffffffffffffffffffffff168273ffffffffffffffffffffffffffffffffffffffff16036106f45760006040517f89c62b640000000000000000000000000000000000000000000000000000000081526004016106eb9190611ad7565b60405180910390fd5b600360008373ffffffffffffffffffffffffffffffffffffffff1673ffffffffffffffffffffffffffffffffffffffff168152602001908152602001600020549050919050565b60606001805461074a90611f2d565b80601f016020809104026020016040519081016040528092919081815260200182805461077690611f2d565b80156107c35780601f10610798576101008083540402835291602001916107c3565b820191906000526020600020905b8154815290600101906020018083116107a657829003601f168201915b5050505050905090565b6107df6107d8610cef565b8383610f41565b5050565b6107ee84848461054d565b6107fa848484846110b0565b50505050565b600061080b8261066f565b9050610818813384611267565b6000600181111561082c5761082b611e6c565b5b6009600084815260200190815260200160002060009054906101000a900460ff16600181111561085f5761085e611e6c565b5b036108a55760016009600084815260200190815260200160002060006101000a81548160ff0219169083600181111561089b5761089a611e6c565b5b02179055506108e2565b60006009600084815260200190815260200160002060006101000a81548160ff021916908360018111156108dc576108db611e6c565b5b02179055505b5050565b606080600060018111156108fd576108fc611e6c565b5b6009600085815260200190815260200160002060009054906101000a900460ff1660018111156109305761092f611e6c565b5b036109c7576008805461094290611f2d565b80601f016020809104026020016040519081016040528092919081815260200182805461096e90611f2d565b80156109bb5780601f10610990576101008083540402835291602001916109bb565b820191906000526020600020905b81548152906001019060200180831161099e57829003601f168201915b50505050509050610aa1565b6001808111156109da576109d9611e6c565b5b6009600085815260200190815260200160002060009054906101000a900460ff166001811115610a0d57610a0c611e6c565b5b03610aa05760078054610a1f90611f2d565b80601f0160208091040260200160405190810160405280929190818152602001828054610a4b90611f2d565b8015610a985780601f10610a6d57610100808354040283529160200191610a98565b820191906000526020600020905b815481529060010190602001808311610a7b57829003601f168201915b505050505090505b5b610aa961132b565b610ada610ab4610425565b83604051602001610ac692919061219e565b604051602081830303815290604052611368565b604051602001610aeb9291906121e3565b604051602081830303815290604052915050919050565b6000600560008473ffffffffffffffffffffffffffffffffffffffff1673ffffffffffffffffffffffffffffffffffffffff16815260200190815260200160002060008373ffffffffffffffffffffffffffffffffffffffff1673ffffffffffffffffffffffffffffffffffffffff16815260200190815260200160002060009054906101000a900460ff16905092915050565b60006009600083815260200190815260200160002060009054906101000a900460ff169050919050565b60007f01ffc9a7000000000000000000000000000000000000000000000000000000007bffffffffffffffffffffffffffffffffffffffffffffffffffffffff1916827bffffffffffffffffffffffffffffffffffffffffffffffffffffffff1916149050919050565b600080610c36836114da565b9050600073ffffffffffffffffffffffffffffffffffffffff168173ffffffffffffffffffffffffffffffffffffffff1603610ca957826040517f7e273289000000000000000000000000000000000000000000000000000000008152600401610ca09190611bed565b60405180910390fd5b80915050919050565b60006004600083815260200190815260200160002060009054906101000a900473ffffffffffffffffffffffffffffffffffffffff169050919050565b600033905090565b610d048383836001611517565b505050565b610d238282604051806020016040528060008152506116dc565b5050565b600080610d33846114da565b9050600073ffffffffffffffffffffffffffffffffffffffff168373ffffffffffffffffffffffffffffffffffffffff1614610d7557610d74818486611267565b5b600073ffffffffffffffffffffffffffffffffffffffff168173ffffffffffffffffffffffffffffffffffffffff1614610e0657610db7600085600080611517565b6001600360008373ffffffffffffffffffffffffffffffffffffffff1673ffffffffffffffffffffffffffffffffffffffff168152602001908152602001600020600082825403925050819055505b600073ffffffffffffffffffffffffffffffffffffffff168573ffffffffffffffffffffffffffffffffffffffff1614610e89576001600360008773ffffffffffffffffffffffffffffffffffffffff1673ffffffffffffffffffffffffffffffffffffffff168152602001908152602001600020600082825401925050819055505b846002600086815260200190815260200160002060006101000a81548173ffffffffffffffffffffffffffffffffffffffff021916908373ffffffffffffffffffffffffffffffffffffffff160217905550838573ffffffffffffffffffffffffffffffffffffffff168273ffffffffffffffffffffffffffffffffffffffff167fddf252ad1be2c89b69c2b068fc378daa952ba7f163c4a11628f55a4df523b3ef60405160405180910390a4809150509392505050565b600073ffffffffffffffffffffffffffffffffffffffff168273ffffffffffffffffffffffffffffffffffffffff1603610fb257816040517f5b08ba18000000000000000000000000000000000000000000000000000000008152600401610fa99190611ad7565b60405180910390fd5b80600560008573ffffffffffffffffffffffffffffffffffffffff1673ffffffffffffffffffffffffffffffffffffffff16815260200190815260200160002060008473ffffffffffffffffffffffffffffffffffffffff1673ffffffffffffffffffffffffffffffffffffffff16815260200190815260200160002060006101000a81548160ff0219169083151502179055508173ffffffffffffffffffffffffffffffffffffffff168373ffffffffffffffffffffffffffffffffffffffff167f17307eab39ab6107e8899845ad3d59bd9653f200f220920489ca2b5937696c31836040516110a39190611966565b60405180910390a3505050565b60008373ffffffffffffffffffffffffffffffffffffffff163b1115611261578273ffffffffffffffffffffffffffffffffffffffff1663150b7a026110f4610cef565b8685856040518563ffffffff1660e01b8152600401611116949392919061225c565b6020604051808303816000875af192505050801561115257506040513d601f19601f8201168201806040525081019061114f91906122bd565b60015b6111d6573d8060008114611182576040519150601f19603f3d011682016040523d82523d6000602084013e611187565b606091505b5060008151036111ce57836040517f64a0ae920000000000000000000000000000000000000000000000000000000081526004016111c59190611ad7565b60405180910390fd5b805181602001fd5b63150b7a0260e01b7bffffffffffffffffffffffffffffffffffffffffffffffffffffffff1916817bffffffffffffffffffffffffffffffffffffffffffffffffffffffff19161461125f57836040517f64a0ae920000000000000000000000000000000000000000000000000000000081526004016112569190611ad7565b60405180910390fd5b505b50505050565b6112728383836116f8565b61132657600073ffffffffffffffffffffffffffffffffffffffff168373ffffffffffffffffffffffffffffffffffffffff16036112e757806040517f7e2732890000000000000000000000000000000000000000000000000000000081526004016112de9190611bed565b60405180910390fd5b81816040517f177e802f00000000000000000000000000000000000000000000000000000000815260040161131d9291906122ea565b60405180910390fd5b505050565b60606040518060400160405280601d81526020017f646174613a6170706c69636174696f6e2f6a736f6e3b6261736536342c000000815250905090565b6060600082510361138a576040518060200160405280600081525090506114d5565b60006040518060600160405280604081526020016123ea60409139905060006003600285516113b99190612313565b6113c39190612376565b60046113cf91906123a7565b67ffffffffffffffff8111156113e8576113e7611c7e565b5b6040519080825280601f01601f19166020018201604052801561141a5781602001600182028036833780820191505090505b50905060018201602082018586518701602081018051600082525b82841015611490576003840193508351603f8160121c168701518653600186019550603f81600c1c168701518653600186019550603f8160061c168701518653600186019550603f8116870151865360018601955050611435565b80825260038a5106600181146114ad57600281146114c0576114c8565b603d6001870353603d60028703536114c8565b603d60018703535b5050505050505080925050505b919050565b60006002600083815260200190815260200160002060009054906101000a900473ffffffffffffffffffffffffffffffffffffffff169050919050565b80806115505750600073ffffffffffffffffffffffffffffffffffffffff168273ffffffffffffffffffffffffffffffffffffffff1614155b1561168457600061156084610c2a565b9050600073ffffffffffffffffffffffffffffffffffffffff168373ffffffffffffffffffffffffffffffffffffffff16141580156115cb57508273ffffffffffffffffffffffffffffffffffffffff168173ffffffffffffffffffffffffffffffffffffffff1614155b80156115de57506115dc8184610b02565b155b1561162057826040517fa9fbf51f0000000000000000000000000000000000000000000000000000000081526004016116179190611ad7565b60405180910390fd5b811561168257838573ffffffffffffffffffffffffffffffffffffffff168273ffffffffffffffffffffffffffffffffffffffff167f8c5be1e5ebec7d5bd14f71427d1e84f3dd0314c0f7b2291e5b200ac8c7c3b92560405160405180910390a45b505b836004600085815260200190815260200160002060006101000a81548173ffffffffffffffffffffffffffffffffffffffff021916908373ffffffffffffffffffffffffffffffffffffffff16021790555050505050565b6116e683836117b9565b6116f360008484846110b0565b505050565b60008073ffffffffffffffffffffffffffffffffffffffff168373ffffffffffffffffffffffffffffffffffffffff16141580156117b057508273ffffffffffffffffffffffffffffffffffffffff168473ffffffffffffffffffffffffffffffffffffffff16148061177157506117708484610b02565b5b806117af57508273ffffffffffffffffffffffffffffffffffffffff1661179783610cb2565b73ffffffffffffffffffffffffffffffffffffffff16145b5b90509392505050565b600073ffffffffffffffffffffffffffffffffffffffff168273ffffffffffffffffffffffffffffffffffffffff160361182b5760006040517f64a0ae920000000000000000000000000000000000000000000000000000000081526004016118229190611ad7565b60405180910390fd5b600061183983836000610d27565b9050600073ffffffffffffffffffffffffffffffffffffffff168173ffffffffffffffffffffffffffffffffffffffff16146118ad5760006040517f73c6ac6e0000000000000000000000000000000000000000000000000000000081526004016118a49190611ad7565b60405180910390fd5b505050565b6000604051905090565b600080fd5b600080fd5b60007fffffffff0000000000000000000000000000000000000000000000000000000082169050919050565b6118fb816118c6565b811461190657600080fd5b50565b600081359050611918816118f2565b92915050565b600060208284031215611934576119336118bc565b5b600061194284828501611909565b91505092915050565b60008115159050919050565b6119608161194b565b82525050565b600060208201905061197b6000830184611957565b92915050565b600081519050919050565b600082825260208201905092915050565b60005b838110156119bb5780820151818401526020810190506119a0565b60008484015250505050565b6000601f19601f8301169050919050565b60006119e382611981565b6119ed818561198c565b93506119fd81856020860161199d565b611a06816119c7565b840191505092915050565b60006020820190508181036000830152611a2b81846119d8565b905092915050565b6000819050919050565b611a4681611a33565b8114611a5157600080fd5b50565b600081359050611a6381611a3d565b92915050565b600060208284031215611a7f57611a7e6118bc565b5b6000611a8d84828501611a54565b91505092915050565b600073ffffffffffffffffffffffffffffffffffffffff82169050919050565b6000611ac182611a96565b9050919050565b611ad181611ab6565b82525050565b6000602082019050611aec6000830184611ac8565b92915050565b611afb81611ab6565b8114611b0657600080fd5b50565b600081359050611b1881611af2565b92915050565b60008060408385031215611b3557611b346118bc565b5b6000611b4385828601611b09565b9250506020611b5485828601611a54565b9150509250929050565b600080600060608486031215611b7757611b766118bc565b5b6000611b8586828701611b09565b9350506020611b9686828701611b09565b9250506040611ba786828701611a54565b9150509250925092565b600060208284031215611bc757611bc66118bc565b5b6000611bd584828501611b09565b91505092915050565b611be781611a33565b82525050565b6000602082019050611c026000830184611bde565b92915050565b611c118161194b565b8114611c1c57600080fd5b50565b600081359050611c2e81611c08565b92915050565b60008060408385031215611c4b57611c4a6118bc565b5b6000611c5985828601611b09565b9250506020611c6a85828601611c1f565b9150509250929050565b600080fd5b600080fd5b7f4e487b7100000000000000000000000000000000000000000000000000000000600052604160045260246000fd5b611cb6826119c7565b810181811067ffffffffffffffff82111715611cd557611cd4611c7e565b5b80604052505050565b6000611ce86118b2565b9050611cf48282611cad565b919050565b600067ffffffffffffffff821115611d1457611d13611c7e565b5b611d1d826119c7565b9050602081019050919050565b82818337600083830152505050565b6000611d4c611d4784611cf9565b611cde565b905082815260208101848484011115611d6857611d67611c79565b5b611d73848285611d2a565b509392505050565b600082601f830112611d9057611d8f611c74565b5b8135611da0848260208601611d39565b91505092915050565b60008060008060808587031215611dc357611dc26118bc565b5b6000611dd187828801611b09565b9450506020611de287828801611b09565b9350506040611df387828801611a54565b925050606085013567ffffffffffffffff811115611e1457611e136118c1565b5b611e2087828801611d7b565b91505092959194509250565b60008060408385031215611e4357611e426118bc565b5b6000611e5185828601611b09565b9250506020611e6285828601611b09565b9150509250929050565b7f4e487b7100000000000000000000000000000000000000000000000000000000600052602160045260246000fd5b60028110611eac57611eab611e6c565b5b50565b6000819050611ebd82611e9b565b919050565b6000611ecd82611eaf565b9050919050565b611edd81611ec2565b82525050565b6000602082019050611ef86000830184611ed4565b92915050565b7f4e487b7100000000000000000000000000000000000000000000000000000000600052602260045260246000fd5b60006002820490506001821680611f4557607f821691505b602082108103611f5857611f57611efe565b5b50919050565b7f4e487b7100000000000000000000000000000000000000000000000000000000600052601160045260246000fd5b6000611f9882611a33565b91507fffffffffffffffffffffffffffffffffffffffffffffffffffffffffffffffff8203611fca57611fc9611f5e565b5b600182019050919050565b6000606082019050611fea6000830186611ac8565b611ff76020830185611bde565b6120046040830184611ac8565b949350505050565b600081905092915050565b7f7b226e616d653a20220000000000000000000000000000000000000000000000600082015250565b600061204d60098361200c565b915061205882612017565b600982019050919050565b600061206e82611981565b612078818561200c565b935061208881856020860161199d565b80840191505092915050565b7f222c206465736372697074696f6e3a2022416e204e465420746861742072656660008201527f6c6563747320796f7572206d6f6f6421222c202261747472696275746573223a60208201527f205b7b2274726169745f74797065223a20224d6f6f64222c202276616c75652260408201527f3a203130307d5d2c2022696d616765223a200000000000000000000000000000606082015250565b600061213c60728361200c565b915061214782612094565b607282019050919050565b7f227d000000000000000000000000000000000000000000000000000000000000600082015250565b600061218860028361200c565b915061219382612152565b600282019050919050565b60006121a982612040565b91506121b58285612063565b91506121c08261212f565b91506121cc8284612063565b91506121d78261217b565b91508190509392505050565b60006121ef8285612063565b91506121fb8284612063565b91508190509392505050565b600081519050919050565b600082825260208201905092915050565b600061222e82612207565b6122388185612212565b935061224881856020860161199d565b612251816119c7565b840191505092915050565b60006080820190506122716000830187611ac8565b61227e6020830186611ac8565b61228b6040830185611bde565b818103606083015261229d8184612223565b905095945050505050565b6000815190506122b7816118f2565b92915050565b6000602082840312156122d3576122d26118bc565b5b60006122e1848285016122a8565b91505092915050565b60006040820190506122ff6000830185611ac8565b61230c6020830184611bde565b9392505050565b600061231e82611a33565b915061232983611a33565b925082820190508082111561234157612340611f5e565b5b92915050565b7f4e487b7100000000000000000000000000000000000000000000000000000000600052601260045260246000fd5b600061238182611a33565b915061238c83611a33565b92508261239c5761239b612347565b5b828204905092915050565b60006123b282611a33565b91506123bd83611a33565b92508282026123cb81611a33565b915082820484148315176123e2576123e1611f5e565b5b509291505056fe4142434445464748494a4b4c4d4e4f505152535455565758595a6162636465666768696a6b6c6d6e6f707172737475767778797a303132333435363738392b2fa26469706673582212206c27b6b47fa28c92579ea6e480188a9285d411962e235e9c4de4910f79e0e67e64736f6c634300081c0033","linkReferences":{}},"methodIdentifiers":{"approve(address,uint256)":"095ea7b3","balanceOf(address)":"70a08231","flipMood(uint256)":"c1a147a0","getApproved(uint256)":"081812fc","getMood(uint256)":"f4cf2466","isApprovedForAll(address,address)":"e985e9c5","mintNFT()":"14f710fe","name()":"06fdde03","ownerOf(uint256)":"6352211e","safeTransferFrom(address,address,uint256)":"42842e0e","safeTransferFrom(address,address,uint256,bytes)":"b88d4fde","setApprovalForAll(address,bool)":"a22cb465","supportsInterface(bytes4)":"01ffc9a7","symbol()":"95d89b41","tokenURI(uint256)":"c87b56dd","transferFrom(address,address,uint256)":"23b872dd"},"id":42}